:100000000C942A000C9434000C9434000C943400AA
:100010000C9434000C9434000C9434000C94340090
:100020000C9434000C9434000C9434000C94340080
:100030000C9434000C9434000C9434000C94340070
:100040000C9434000C9434000C9434000C94340060
:100050000C94340011241FBECFE5D4E0DEBFCDBF29
:100060000E9436000C94A2000C94000011BA8FEF8D
:1000700087BB82BB7AEF49EF55EF29E130E066EFAD
:1000800080B390E08F3F910511F478BB1EC08E3F86
:10009000910511F468BB2DC08D3F910589F458BBC3
:1000A00088E893E1F9013197F1F70197D9F748BB57
:1000B00088E59BE1F9013197F1F70197D9F7E0CF96
:1000C0008B3F910511F448BBDBCF8A3F910589F442
:1000D00058BB88E893E1F9013197F1F70197D9F717
:1000E00048BB88E59BE1F9013197F1F70197D9F712
:1000F000C7CF893F910589F458BB88E893E1F9019E
:100100003197F1F70197D9F748BB88E59BE1F901F1
:100110003197F1F70197D9F7B3CF883F910509F0EF
:10012000AFCF58BB88E893E1F9013197F1F7019718
:10013000D9F748BB88EA91E6F9013197F1F70197C1
:08014000D9F79ECFF894FFCF20
:00000001FF
